{
  "contractName": "MedicalRecord",
  "abi": [
    {
      "inputs": [],
      "payable": false,
      "stateMutability": "nonpayable",
      "type": "constructor"
    },
    {
      "anonymous": false,
      "inputs": [
        {
          "indexed": false,
          "name": "",
          "type": "uint256"
        },
        {
          "indexed": false,
          "name": "",
          "type": "string"
        },
        {
          "indexed": false,
          "name": "",
          "type": "string"
        },
        {
          "indexed": false,
          "name": "",
          "type": "uint256"
        }
      ],
      "name": "AcceptedAppointment",
      "type": "event"
    },
    {
      "constant": true,
      "inputs": [
        {
          "name": "a",
          "type": "string"
        },
        {
          "name": "b",
          "type": "string"
        }
      ],
      "name": "compareStrings",
      "outputs": [
        {
          "name": "",
          "type": "bool"
        }
      ],
      "payable": false,
      "stateMutability": "pure",
      "type": "function"
    },
    {
      "constant": true,
      "inputs": [
        {
          "name": "hospital_id",
          "type": "uint256"
        }
      ],
      "name": "getDocters",
      "outputs": [
        {
          "name": "",
          "type": "uint256[]"
        }
      ],
      "payable": false,
      "stateMutability": "view",
      "type": "function"
    },
    {
      "constant": true,
      "inputs": [
        {
          "name": "hospital_id",
          "type": "uint256"
        },
        {
          "name": "docter_id",
          "type": "uint256"
        }
      ],
      "name": "getDocter",
      "outputs": [
        {
          "name": "",
          "type": "string"
        },
        {
          "name": "",
          "type": "string"
        },
        {
          "name": "",
          "type": "string"
        },
        {
          "name": "",
          "type": "uint8"
        },
        {
          "name": "",
          "type": "uint256"
        }
      ],
      "payable": false,
      "stateMutability": "view",
      "type": "function"
    },
    {
      "constant": false,
      "inputs": [
        {
          "name": "hospital_id",
          "type": "uint256"
        },
        {
          "name": "docters_id",
          "type": "uint256"
        },
        {
          "name": "name",
          "type": "string"
        },
        {
          "name": "qualification",
          "type": "string"
        },
        {
          "name": "specialisation",
          "type": "string"
        },
        {
          "name": "gender",
          "type": "uint8"
        },
        {
          "name": "experience",
          "type": "uint256"
        }
      ],
      "name": "addDocter",
      "outputs": [],
      "payable": false,
      "stateMutability": "nonpayable",
      "type": "function"
    },
    {
      "constant": false,
      "inputs": [
        {
          "name": "id",
          "type": "uint256"
        },
        {
          "name": "name",
          "type": "string"
        },
        {
          "name": "location",
          "type": "string"
        },
        {
          "name": "hospitalType",
          "type": "uint8"
        }
      ],
      "name": "addHospital",
      "outputs": [],
      "payable": false,
      "stateMutability": "nonpayable",
      "type": "function"
    },
    {
      "constant": true,
      "inputs": [],
      "name": "getHospital",
      "outputs": [
        {
          "name": "",
          "type": "uint256"
        },
        {
          "name": "",
          "type": "string"
        }
      ],
      "payable": false,
      "stateMutability": "view",
      "type": "function"
    },
    {
      "constant": true,
      "inputs": [],
      "name": "getHospitals",
      "outputs": [
        {
          "name": "",
          "type": "uint256[]"
        }
      ],
      "payable": false,
      "stateMutability": "view",
      "type": "function"
    },
    {
      "constant": true,
      "inputs": [
        {
          "name": "hospital_id",
          "type": "uint256"
        }
      ],
      "name": "getHospitalById",
      "outputs": [
        {
          "name": "",
          "type": "string"
        },
        {
          "name": "",
          "type": "string"
        },
        {
          "name": "",
          "type": "uint8"
        }
      ],
      "payable": false,
      "stateMutability": "view",
      "type": "function"
    },
    {
      "constant": true,
      "inputs": [
        {
          "name": "hospital_id",
          "type": "uint256"
        }
      ],
      "name": "getAppointments",
      "outputs": [
        {
          "name": "",
          "type": "uint256[]"
        }
      ],
      "payable": false,
      "stateMutability": "view",
      "type": "function"
    },
    {
      "constant": true,
      "inputs": [
        {
          "name": "hospital_id",
          "type": "uint256"
        },
        {
          "name": "appointment_id",
          "type": "uint256"
        }
      ],
      "name": "getAppointment",
      "outputs": [
        {
          "name": "",
          "type": "bool"
        },
        {
          "name": "",
          "type": "string"
        },
        {
          "name": "",
          "type": "uint256"
        },
        {
          "name": "",
          "type": "address"
        },
        {
          "name": "",
          "type": "uint256"
        }
      ],
      "payable": false,
      "stateMutability": "view",
      "type": "function"
    },
    {
      "constant": false,
      "inputs": [
        {
          "name": "hospital_id",
          "type": "uint256"
        },
        {
          "name": "appointment_id",
          "type": "uint256"
        },
        {
          "name": "fees",
          "type": "uint256"
        }
      ],
      "name": "setAppointmentFees",
      "outputs": [],
      "payable": false,
      "stateMutability": "nonpayable",
      "type": "function"
    },
    {
      "constant": false,
      "inputs": [
        {
          "name": "hospital_id",
          "type": "uint256"
        },
        {
          "name": "docter_id",
          "type": "uint256"
        },
        {
          "name": "appointment_id",
          "type": "uint256"
        },
        {
          "name": "patient",
          "type": "address"
        },
        {
          "name": "createdAt",
          "type": "string"
        }
      ],
      "name": "addAppointment",
      "outputs": [],
      "payable": false,
      "stateMutability": "nonpayable",
      "type": "function"
    },
    {
      "constant": false,
      "inputs": [
        {
          "name": "hospital_id",
          "type": "uint256"
        },
        {
          "name": "appointment_id",
          "type": "uint256"
        },
        {
          "name": "accepted",
          "type": "bool"
        },
        {
          "name": "scheduledAt",
          "type": "string"
        }
      ],
      "name": "acceptAppointment",
      "outputs": [],
      "payable": false,
      "stateMutability": "nonpayable",
      "type": "function"
    },
    {
      "constant": true,
      "inputs": [],
      "name": "getUserAppointments",
      "outputs": [
        {
          "name": "",
          "type": "uint256[]"
        },
        {
          "name": "",
          "type": "uint256[]"
        }
      ],
      "payable": false,
      "stateMutability": "view",
      "type": "function"
    },
    {
      "constant": true,
      "inputs": [],
      "name": "getUser",
      "outputs": [
        {
          "name": "",
          "type": "string"
        },
        {
          "name": "",
          "type": "string"
        },
        {
          "name": "",
          "type": "string"
        },
        {
          "name": "",
          "type": "uint8"
        },
        {
          "name": "",
          "type": "uint8"
        },
        {
          "name": "",
          "type": "string"
        }
      ],
      "payable": false,
      "stateMutability": "view",
      "type": "function"
    },
    {
      "constant": true,
      "inputs": [
        {
          "name": "phone",
          "type": "string"
        }
      ],
      "name": "getUserId",
      "outputs": [
        {
          "name": "",
          "type": "address"
        },
        {
          "name": "",
          "type": "bool"
        }
      ],
      "payable": false,
      "stateMutability": "view",
      "type": "function"
    },
    {
      "constant": false,
      "inputs": [
        {
          "name": "phone",
          "type": "string"
        },
        {
          "name": "name",
          "type": "string"
        },
        {
          "name": "email",
          "type": "string"
        },
        {
          "name": "gender",
          "type": "uint8"
        },
        {
          "name": "bloodGroup",
          "type": "uint8"
        },
        {
          "name": "dob",
          "type": "string"
        }
      ],
      "name": "addUser",
      "outputs": [],
      "payable": false,
      "stateMutability": "nonpayable",
      "type": "function"
    },
    {
      "constant": false,
      "inputs": [
        {
          "name": "a",
          "type": "address"
        },
        {
          "name": "id",
          "type": "uint256"
        },
        {
          "name": "pdf",
          "type": "string"
        },
        {
          "name": "dateTime",
          "type": "string"
        },
        {
          "name": "docName",
          "type": "string"
        }
      ],
      "name": "addRecord",
      "outputs": [],
      "payable": false,
      "stateMutability": "nonpayable",
      "type": "function"
    },
    {
      "constant": true,
      "inputs": [
        {
          "name": "a",
          "type": "address"
        }
      ],
      "name": "getAllRecords",
      "outputs": [
        {
          "name": "",
          "type": "uint256[]"
        }
      ],
      "payable": false,
      "stateMutability": "view",
      "type": "function"
    },
    {
      "constant": true,
      "inputs": [
        {
          "name": "a",
          "type": "address"
        },
        {
          "name": "id",
          "type": "uint256"
        }
      ],
      "name": "getRecord",
      "outputs": [
        {
          "name": "",
          "type": "uint256"
        },
        {
          "name": "",
          "type": "string"
        },
        {
          "name": "",
          "type": "string"
        },
        {
          "name": "",
          "type": "string"
        }
      ],
      "payable": false,
      "stateMutability": "view",
      "type": "function"
    }
  ],
  "bytecode": "0x608060405234801561001057600080fd5b50614480806100206000396000f3fe608060405234801561001057600080fd5b506004361061012c5760003560e01c8063832880e7116100ad578063d6ac536911610071578063d6ac536914611329578063db1ef71f146113ac578063dc5d9b7e146114b2578063e062e11c146116c6578063ff9b4cc1146117085761012c565b8063832880e714610b0b578063ac0f2f7c14610cfc578063b33c4cf214610d7f578063bed34bba14611019578063cdb8acf0146111835761012c565b8063305cfb3f116100f4578063305cfb3f146104355780633687d3b5146105da57806344125aa6146107ed5780634d20054a1461091557806379f90d5e14610a0e5761012c565b806302e2df1c146101315780630cb989a0146101ca57806310010719146102a557806318769d461461034c5780631aecb28b146103d6575b600080fd5b6101736004803603602081101561014757600080fd5b81019080803573ffffffffffffffffffffffffffffffffffffffff169060200190929190505050611871565b6040518080602001828103825283818151815260200191508051906020019060200280838360005b838110156101b657808201518184015260208101905061019b565b505050509050019250505060405180910390f35b6102a3600480360360808110156101e057600080fd5b8101908080359060200190929190803590602001909291908035151590602001909291908035906020019064010000000081111561021d57600080fd5b82018360208201111561022f57600080fd5b8035906020019184600183028401116401000000008311171561025157600080fd5b91908080601f016020809104026020016040519081016040528093929190818152602001838380828437600081840152601f19601f8201169050808301925050505050505091929192905050506119cb565b005b6102ad611be0565b604051808060200180602001838103835285818151815260200191508051906020019060200280838360005b838110156102f45780820151818401526020810190506102d9565b50505050905001838103825284818151815260200191508051906020019060200280838360005b8381101561033657808201518184015260208101905061031b565b5050505090500194505050505060405180910390f35b610354611d11565b6040518083815260200180602001828103825283818151815260200191508051906020019080838360005b8381101561039a57808201518184015260208101905061037f565b50505050905090810190601f1680156103c75780820380516001836020036101000a031916815260200191505b50935050505060405180910390f35b6103de611fa7565b6040518080602001828103825283818151815260200191508051906020019060200280838360005b83811015610421578082015181840152602081019050610406565b505050509050019250505060405180910390f35b61046b6004803603604081101561044b57600080fd5b8101908080359060200190929190803590602001909291905050506120c0565b6040518080602001806020018060200186600281111561048757fe5b60ff168152602001858152602001848103845289818151815260200191508051906020019080838360005b838110156104cd5780820151818401526020810190506104b2565b50505050905090810190601f1680156104fa5780820380516001836020036101000a031916815260200191505b50848103835288818151815260200191508051906020019080838360005b83811015610533578082015181840152602081019050610518565b50505050905090810190601f1680156105605780820380516001836020036101000a031916815260200191505b50848103825287818151815260200191508051906020019080838360005b8381101561059957808201518184015260208101905061057e565b50505050905090810190601f1680156105c65780820380516001836020036101000a031916815260200191505b509850505050505050505060405180910390f35b6107eb600480360360a08110156105f057600080fd5b81019080803573ffffffffffffffffffffffffffffffffffffffff169060200190929190803590602001909291908035906020019064010000000081111561063757600080fd5b82018360208201111561064957600080fd5b8035906020019184600183028401116401000000008311171561066b57600080fd5b91908080601f016020809104026020016040519081016040528093929190818152602001838380828437600081840152601f19601f820116905080830192505050505050509192919290803590602001906401000000008111156106ce57600080fd5b8201836020820111156106e057600080fd5b8035906020019184600183028401116401000000008311171561070257600080fd5b91908080601f016020809104026020016040519081016040528093929190818152602001838380828437600081840152601f19601f8201169050808301925050505050505091929192908035906020019064010000000081111561076557600080fd5b82018360208201111561077757600080fd5b8035906020019184600183028401116401000000008311171561079957600080fd5b91908080601f016020809104026020016040519081016040528093929190818152602001838380828437600081840152601f19601f820116905080830192505050505050509192919290505050612452565b005b6108196004803603602081101561080357600080fd5b810190808035906020019092919050505061265c565b60405180806020018060200184600181111561083157fe5b60ff168152602001838103835286818151815260200191508051906020019080838360005b83811015610871578082015181840152602081019050610856565b50505050905090810190601f16801561089e5780820380516001836020036101000a031916815260200191505b50838103825285818151815260200191508051906020019080838360005b838110156108d75780820151818401526020810190506108bc565b50505050905090810190601f1680156109045780820380516001836020036101000a031916815260200191505b509550505050505060405180910390f35b610a0c600480360360a081101561092b57600080fd5b81019080803590602001909291908035906020019092919080359060200190929190803573ffffffffffffffffffffffffffffffffffffffff1690602001909291908035906020019064010000000081111561098657600080fd5b82018360208201111561099857600080fd5b803590602001918460018302840111640100000000831117156109ba57600080fd5b91908080601f016020809104026020016040519081016040528093929190818152602001838380828437600081840152601f19601f8201169050808301925050505050505091929192905050506127f6565b005b610a4460048036036040811015610a2457600080fd5b810190808035906020019092919080359060200190929190505050612aab565b6040518086151515158152602001806020018581526020018473ffffffffffffffffffffffffffffffffffffffff1673ffffffffffffffffffffffffffffffffffffffff168152602001838152602001828103825286818151815260200191508051906020019080838360005b83811015610acc578082015181840152602081019050610ab1565b50505050905090810190601f168015610af95780820380516001836020036101000a031916815260200191505b50965050505050505060405180910390f35b610b13612d28565b60405180806020018060200180602001876002811115610b2f57fe5b60ff168152602001866007811115610b4357fe5b60ff1681526020018060200185810385528b818151815260200191508051906020019080838360005b83811015610b87578082015181840152602081019050610b6c565b50505050905090810190601f168015610bb45780820380516001836020036101000a031916815260200191505b5085810384528a818151815260200191508051906020019080838360005b83811015610bed578082015181840152602081019050610bd2565b50505050905090810190601f168015610c1a5780820380516001836020036101000a031916815260200191505b50858103835289818151815260200191508051906020019080838360005b83811015610c53578082015181840152602081019050610c38565b50505050905090810190601f168015610c805780820380516001836020036101000a031916815260200191505b50858103825286818151815260200191508051906020019080838360005b83811015610cb9578082015181840152602081019050610c9e565b50505050905090810190601f168015610ce65780820380516001836020036101000a031916815260200191505b509a505050505050505050505060405180910390f35b610d2860048036036020811015610d1257600080fd5b8101908080359060200190929190505050613219565b6040518080602001828103825283818151815260200191508051906020019060200280838360005b83811015610d6b578082015181840152602081019050610d50565b505050509050019250505060405180910390f35b611017600480360360c0811015610d9557600080fd5b8101908080359060200190640100000000811115610db257600080fd5b820183602082011115610dc457600080fd5b80359060200191846001830284011164010000000083111715610de657600080fd5b91908080601f016020809104026020016040519081016040528093929190818152602001838380828437600081840152601f19601f82011690508083019250505050505050919291929080359060200190640100000000811115610e4957600080fd5b820183602082011115610e5b57600080fd5b80359060200191846001830284011164010000000083111715610e7d57600080fd5b91908080601f016020809104026020016040519081016040528093929190818152602001838380828437600081840152601f19601f82011690508083019250505050505050919291929080359060200190640100000000811115610ee057600080fd5b820183602082011115610ef257600080fd5b80359060200191846001830284011164010000000083111715610f1457600080fd5b91908080601f016020809104026020016040519081016040528093929190818152602001838380828437600081840152601f19601f820116905080830192505050505050509192919290803560ff169060200190929190803560ff16906020019092919080359060200190640100000000811115610f9157600080fd5b820183602082011115610fa357600080fd5b80359060200191846001830284011164010000000083111715610fc557600080fd5b91908080601f016020809104026020016040519081016040528093929190818152602001838380828437600081840152601f19601f820116905080830192505050505050509192919290505050613348565b005b6111696004803603604081101561102f57600080fd5b810190808035906020019064010000000081111561104c57600080fd5b82018360208201111561105e57600080fd5b8035906020019184600183028401116401000000008311171561108057600080fd5b91908080601f016020809104026020016040519081016040528093929190818152602001838380828437600081840152601f19601f820116905080830192505050505050509192919290803590602001906401000000008111156110e357600080fd5b8201836020820111156110f557600080fd5b8035906020019184600183028401116401000000008311171561111757600080fd5b91908080601f016020809104026020016040519081016040528093929190818152602001838380828437600081840152601f19601f82011690508083019250505050505050919291929050505061362c565b604051808215151515815260200191505060405180910390f35b6111cf6004803603604081101561119957600080fd5b81019080803573ffffffffffffffffffffffffffffffffffffffff1690602001909291908035906020019092919050505061371b565b60405180858152602001806020018060200180602001848103845287818151815260200191508051906020019080838360005b8381101561121d578082015181840152602081019050611202565b50505050905090810190601f16801561124a5780820380516001836020036101000a031916815260200191505b50848103835286818151815260200191508051906020019080838360005b83811015611283578082015181840152602081019050611268565b50505050905090810190601f1680156112b05780820380516001836020036101000a031916815260200191505b50848103825285818151815260200191508051906020019080838360005b838110156112e95780820151818401526020810190506112ce565b50505050905090810190601f1680156113165780820380516001836020036101000a031916815260200191505b5097505050505050505060405180910390f35b6113556004803603602081101561133f57600080fd5b8101908080359060200190929190505050613bde565b6040518080602001828103825283818151815260200191508051906020019060200280838360005b8381101561139857808201518184015260208101905061137d565b505050509050019250505060405180910390f35b611465600480360360208110156113c257600080fd5b81019080803590602001906401000000008111156113df57600080fd5b8201836020820111156113f157600080fd5b8035906020019184600183028401116401000000008311171561141357600080fd5b91908080601f016020809104026020016040519081016040528093929190818152602001838380828437600081840152601f19601f820116905080830192505050505050509192919290505050613d0d565b604051808373ffffffffffffffffffffffffffffffffffffffff1673ffffffffffffffffffffffffffffffffffffffff168152602001821515151581526020019250505060405180910390f35b6116c4600480360360e08110156114c857600080fd5b810190808035906020019092919080359060200190929190803590602001906401000000008111156114f957600080fd5b82018360208201111561150b57600080fd5b8035906020019184600183028401116401000000008311171561152d57600080fd5b91908080601f016020809104026020016040519081016040528093929190818152602001838380828437600081840152601f19601f8201169050808301925050505050505091929192908035906020019064010000000081111561159057600080fd5b8201836020820111156115a257600080fd5b803590602001918460018302840111640100000000831117156115c457600080fd5b91908080601f016020809104026020016040519081016040528093929190818152602001838380828437600081840152601f19601f8201169050808301925050505050505091929192908035906020019064010000000081111561162757600080fd5b82018360208201111561163957600080fd5b8035906020019184600183028401116401000000008311171561165b57600080fd5b91908080601f016020809104026020016040519081016040528093929190818152602001838380828437600081840152601f19601f820116905080830192505050505050509192919290803560ff16906020019092919080359060200190929190505050613ea4565b005b611706600480360360608110156116dc57600080fd5b810190808035906020019092919080359060200190929190803590602001909291905050506140e5565b005b61186f6004803603608081101561171e57600080fd5b81019080803590602001909291908035906020019064010000000081111561174557600080fd5b82018360208201111561175757600080fd5b8035906020019184600183028401116401000000008311171561177957600080fd5b91908080601f016020809104026020016040519081016040528093929190818152602001838380828437600081840152601f19601f820116905080830192505050505050509192919290803590602001906401000000008111156117dc57600080fd5b8201836020820111156117ee57600080fd5b8035906020019184600183028401116401000000008311171561181057600080fd5b91908080601f016020809104026020016040519081016040528093929190818152602001838380828437600081840152601f19601f820116905080830192505050505050509192919290803560ff1690602001909291905050506141da565b005b60606000803373ffffffffffffffffffffffffffffffffffffffff1673ffffffffffffffffffffffffffffffffffffffff16815260200190815260200160002060090160009054906101000a900460ff16611934576040517f08c379a00000000000000000000000000000000000000000000000000000000081526004018080602001828103825260138152602001807f5573657220646f6573206e6f742065786973740000000000000000000000000081525060200191505060405180910390fd5b6000808373ffffffffffffffffffffffffffffffffffffffff1673ffffffffffffffffffffffffffffffffffffffff1681526020019081526020016000206003018054806020026020016040519081016040528092919081815260200182805480156119bf57602002820191906000526020600020905b8154815260200190600101908083116119ab575b50505050509050919050565b600160026000868152602001908152602001600020600401600085815260200190815260200160002060010160016101000a81548160ff0219169083151502179055508160026000868152602001908152602001600020600401600085815260200190815260200160002060010160006101000a81548160ff021916908315150217905550806002600086815260200190815260200160002060040160008581526020019081526020016000206000019080519060200190611a8e9291906143af565b507f7600db403d1af3d2952598bb09b952f327979e00eb035a192016eef90bba677a84600260008781526020019081526020016000206001018386604051808581526020018060200180602001848152602001838103835286818154600181600116156101000203166002900481526020019150805460018160011615610100020316600290048015611b625780601f10611b3757610100808354040283529160200191611b62565b820191906000526020600020905b815481529060010190602001808311611b4557829003601f168201915b5050838103825285818151815260200191508051906020019080838360005b83811015611b9c578082015181840152602081019050611b81565b50505050905090810190601f168015611bc95780820380516001836020036101000a031916815260200191505b50965050505050505060405180910390a150505050565b6060806000803373ffffffffffffffffffffffffffffffffffffffff1673ffffffffffffffffffffffffffffffffffffffff1681526020019081526020016000206001016000803373ffffffffffffffffffffffffffffffffffffffff1673ffffffffffffffffffffffffffffffffffffffff16815260200190815260200160002060020181805480602002602001604051908101604052809291908181526020018280548015611cb057602002820191906000526020600020905b815481526020019060010190808311611c9c575b5050505050915080805480602002602001604051908101604052809291908181526020018280548015611d0257602002820191906000526020600020905b815481526020019060010190808311611cee575b50505050509050915091509091565b600060606000803373ffffffffffffffffffffffffffffffffffffffff1673ffffffffffffffffffffffffffffffffffffffff16815260200190815260200160002060090160009054906101000a900460ff16611dd6576040517f08c379a00000000000000000000000000000000000000000000000000000000081526004018080602001828103825260138152602001807f5573657220646f6573206e6f742065786973740000000000000000000000000081525060200191505060405180910390fd5b60008090505b600380549050811015611f62573373ffffffffffffffffffffffffffffffffffffffff166002600060038481548110611e1157fe5b9060005260206000200154815260200190815260200160002060000160009054906101000a900473ffffffffffffffffffffffffffffffffffffffff1673ffffffffffffffffffffffffffffffffffffffff161415611f555760038181548110611e7757fe5b90600052602060002001546002600060038481548110611e9357fe5b90600052602060002001548152602001908152602001600020600101808054600181600116156101000203166002900480601f016020809104026020016040519081016040528092919081815260200182805460018160011615610100020316600290048015611f445780601f10611f1957610100808354040283529160200191611f44565b820191906000526020600020905b815481529060010190602001808311611f2757829003601f168201915b505050505090509250925050611fa3565b8080600101915050611ddc565b5060008090506040518060400160405280600881526020017f6e6f74666f756e64000000000000000000000000000000000000000000000000815250915091505b9091565b60606000803373ffffffffffffffffffffffffffffffffffffffff1673ffffffffffffffffffffffffffffffffffffffff16815260200190815260200160002060090160009054906101000a900460ff1661206a576040517f08c379a00000000000000000000000000000000000000000000000000000000081526004018080602001828103825260138152602001807f5573657220646f6573206e6f742065786973740000000000000000000000000081525060200191505060405180910390fd5b60038054806020026020016040519081016040528092919081815260200182805480156120b657602002820191906000526020600020905b8154815260200190600101908083116120a2575b5050505050905090565b60608060606000806000803373ffffffffffffffffffffffffffffffffffffffff1673ffffffffffffffffffffffffffffffffffffffff16815260200190815260200160002060090160009054906101000a900460ff16612189576040517f08c379a00000000000000000000000000000000000000000000000000000000081526004018080602001828103825260138152602001807f5573657220646f6573206e6f742065786973740000000000000000000000000081525060200191505060405180910390fd5b600260008881526020019081526020016000206006016000878152602001908152602001600020600001600260008981526020019081526020016000206006016000888152602001908152602001600020600101600260008a81526020019081526020016000206006016000898152602001908152602001600020600201600260008b815260200190815260200160002060060160008a815260200190815260200160002060030160009054906101000a900460ff16600260008c815260200190815260200160002060060160008b815260200190815260200160002060040154848054600181600116156101000203166002900480601f0160208091040260200160405190810160405280929190818152602001828054600181600116156101000203166002900480156122ff5780601f106122d4576101008083540402835291602001916122ff565b820191906000526020600020905b8154815290600101906020018083116122e257829003601f168201915b50505050509450838054600181600116156101000203166002900480601f01602080910402602001604051908101604052809291908181526020018280546001816001161561010002031660029004801561239b5780601f106123705761010080835404028352916020019161239b565b820191906000526020600020905b81548152906001019060200180831161237e57829003601f168201915b50505050509350828054600181600116156101000203166002900480601f0160208091040260200160405190810160405280929190818152602001828054600181600116156101000203166002900480156124375780601f1061240c57610100808354040283529160200191612437565b820191906000526020600020905b81548152906001019060200180831161241a57829003601f168201915b50505050509250945094509450945094509295509295909350565b826000808773ffffffffffffffffffffffffffffffffffffffff1673ffffffffffffffffffffffffffffffffffffffff168152602001908152602001600020600001600086815260200190815260200160002060010190805190602001906124bb9291906143af565b50816000808773ffffffffffffffffffffffffffffffffffffffff1673ffffffffffffffffffffffffffffffffffffffff168152602001908152602001600020600001600086815260200190815260200160002060020190805190602001906125259291906143af565b50806000808773ffffffffffffffffffffffffffffffffffffffff1673ffffffffffffffffffffffffffffffffffffffff1681526020019081526020016000206000016000868152602001908152602001600020600301908051906020019061258f9291906143af565b50836000808773ffffffffffffffffffffffffffffffffffffffff1673ffffffffffffffffffffffffffffffffffffffff1681526020019081526020016000206000016000868152602001908152602001600020600001819055506000808673ffffffffffffffffffffffffffffffffffffffff1673ffffffffffffffffffffffffffffffffffffffff1681526020019081526020016000206003018490806001815401808255809150509060018203906000526020600020016000909192909190915055505050505050565b606080600060026000858152602001908152602001600020600101600260008681526020019081526020016000206002016002600087815260200190815260200160002060030160009054906101000a900460ff16828054600181600116156101000203166002900480601f0160208091040260200160405190810160405280929190818152602001828054600181600116156101000203166002900480156127465780601f1061271b57610100808354040283529160200191612746565b820191906000526020600020905b81548152906001019060200180831161272957829003601f168201915b50505050509250818054600181600116156101000203166002900480601f0160208091040260200160405190810160405280929190818152602001828054600181600116156101000203166002900480156127e25780601f106127b7576101008083540402835291602001916127e2565b820191906000526020600020905b8154815290600101906020018083116127c557829003601f168201915b505050505091509250925092509193909250565b6000803373ffffffffffffffffffffffffffffffffffffffff1673ffffffffffffffffffffffffffffffffffffffff16815260200190815260200160002060090160009054906101000a900460ff166128b7576040517f08c379a00000000000000000000000000000000000000000000000000000000081526004018080602001828103825260138152602001807f5573657220646f6573206e6f742065786973740000000000000000000000000081525060200191505060405180910390fd5b8060026000878152602001908152602001600020600401600085815260200190815260200160002060020190805190602001906128f59291906143af565b5083600260008781526020019081526020016000206004016000858152602001908152602001600020600301819055508160026000878152602001908152602001600020600401600085815260200190815260200160002060040160006101000a81548173ffffffffffffffffffffffffffffffffffffffff021916908373ffffffffffffffffffffffffffffffffffffffff160217905550600260008681526020019081526020016000206005018390806001815401808255809150509060018203906000526020600020016000909192909190915055506000808373ffffffffffffffffffffffffffffffffffffffff1673ffffffffffffffffffffffffffffffffffffffff1681526020019081526020016000206001018390806001815401808255809150509060018203906000526020600020016000909192909190915055506000808373ffffffffffffffffffffffffffffffffffffffff1673ffffffffffffffffffffffffffffffffffffffff1681526020019081526020016000206002018590806001815401808255809150509060018203906000526020600020016000909192909190915055505050505050565b6000606060008060008060003373ffffffffffffffffffffffffffffffffffffffff1673ffffffffffffffffffffffffffffffffffffffff16815260200190815260200160002060090160009054906101000a900460ff16612b75576040517f08c379a00000000000000000000000000000000000000000000000000000000081526004018080602001828103825260138152602001807f5573657220646f6573206e6f742065786973740000000000000000000000000081525060200191505060405180910390fd5b60026000888152602001908152602001600020600401600087815260200190815260200160002060010160029054906101000a900460ff16600260008981526020019081526020016000206004016000888152602001908152602001600020600201600260008a8152602001908152602001600020600401600089815260200190815260200160002060030154600260008b815260200190815260200160002060040160008a815260200190815260200160002060040160009054906101000a900473ffffffffffffffffffffffffffffffffffffffff16600260008c815260200190815260200160002060040160008b815260200190815260200160002060050154838054600181600116156101000203166002900480601f016020809104026020016040519081016040528092919081815260200182805460018160011615610100020316600290048015612d0d5780601f10612ce257610100808354040283529160200191612d0d565b820191906000526020600020905b815481529060010190602001808311612cf057829003601f168201915b50505050509350945094509450945094509295509295909350565b606080606060008060606000803373ffffffffffffffffffffffffffffffffffffffff1673ffffffffffffffffffffffffffffffffffffffff16815260200190815260200160002060090160009054906101000a900460ff16612df3576040517f08c379a00000000000000000000000000000000000000000000000000000000081526004018080602001828103825260138152602001807f5573657220646f6573206e6f742065786973740000000000000000000000000081525060200191505060405180910390fd5b6000803373ffffffffffffffffffffffffffffffffffffffff1673ffffffffffffffffffffffffffffffffffffffff1681526020019081526020016000206004016000803373ffffffffffffffffffffffffffffffffffffffff1673ffffffffffffffffffffffffffffffffffffffff1681526020019081526020016000206005016000803373ffffffffffffffffffffffffffffffffffffffff1673ffffffffffffffffffffffffffffffffffffffff1681526020019081526020016000206006016000803373ffffffffffffffffffffffffffffffffffffffff1673ffffffffffffffffffffffffffffffffffffffff16815260200190815260200160002060070160009054906101000a900460ff166000803373ffffffffffffffffffffffffffffffffffffffff1673ffffffffffffffffffffffffffffffffffffffff16815260200190815260200160002060070160019054906101000a900460ff166000803373ffffffffffffffffffffffffffffffffffffffff1673ffffffffffffffffffffffffffffffffffffffff168152602001908152602001600020600801858054600181600116156101000203166002900480601f01602080910402602001604051908101604052809291908181526020018280546001816001161561010002031660029004801561302a5780601f10612fff5761010080835404028352916020019161302a565b820191906000526020600020905b81548152906001019060200180831161300d57829003601f168201915b50505050509550848054600181600116156101000203166002900480601f0160208091040260200160405190810160405280929190818152602001828054600181600116156101000203166002900480156130c65780601f1061309b576101008083540402835291602001916130c6565b820191906000526020600020905b8154815290600101906020018083116130a957829003601f168201915b50505050509450838054600181600116156101000203166002900480601f0160208091040260200160405190810160405280929190818152602001828054600181600116156101000203166002900480156131625780601f1061313757610100808354040283529160200191613162565b820191906000526020600020905b81548152906001019060200180831161314557829003601f168201915b50505050509350808054600181600116156101000203166002900480601f0160208091040260200160405190810160405280929190818152602001828054600181600116156101000203166002900480156131fe5780601f106131d3576101008083540402835291602001916131fe565b820191906000526020600020905b8154815290600101906020018083116131e157829003601f168201915b50505050509050955095509550955095509550909192939495565b60606000803373ffffffffffffffffffffffffffffffffffffffff1673ffffffffffffffffffffffffffffffffffffffff16815260200190815260200160002060090160009054906101000a900460ff166132dc576040517f08c379a00000000000000000000000000000000000000000000000000000000081526004018080602001828103825260138152602001807f5573657220646f6573206e6f742065786973740000000000000000000000000081525060200191505060405180910390fd5b6002600083815260200190815260200160002060050180548060200260200160405190810160405280929190818152602001828054801561333c57602002820191906000526020600020905b815481526020019060010190808311613328575b50505050509050919050565b856000803373ffffffffffffffffffffffffffffffffffffffff1673ffffffffffffffffffffffffffffffffffffffff168152602001908152602001600020600401908051906020019061339d9291906143af565b50846000803373ffffffffffffffffffffffffffffffffffffffff1673ffffffffffffffffffffffffffffffffffffffff16815260200190815260200160002060050190805190602001906133f39291906143af565b50836000803373ffffffffffffffffffffffffffffffffffffffff1673ffffffffffffffffffffffffffffffffffffffff16815260200190815260200160002060060190805190602001906134499291906143af565b50826000803373ffffffffffffffffffffffffffffffffffffffff1673ffffffffffffffffffffffffffffffffffffffff16815260200190815260200160002060070160006101000a81548160ff021916908360028111156134a757fe5b0217905550816000803373ffffffffffffffffffffffffffffffffffffffff1673ffffffffffffffffffffffffffffffffffffffff16815260200190815260200160002060070160016101000a81548160ff0219169083600781111561350957fe5b0217905550806000803373ffffffffffffffffffffffffffffffffffffffff1673ffffffffffffffffffffffffffffffffffffffff16815260200190815260200160002060080190805190602001906135639291906143af565b5060016000803373ffffffffffffffffffffffffffffffffffffffff1673ffffffffffffffffffffffffffffffffffffffff16815260200190815260200160002060090160006101000a81548160ff02191690831515021790555060013390806001815401808255809150509060018203906000526020600020016000909192909190916101000a81548173ffffffffffffffffffffffffffffffffffffffff021916908373ffffffffffffffffffffffffffffffffffffffff16021790555050505050505050565b6000816040516020018082805190602001908083835b602083106136655780518252602082019150602081019050602083039250613642565b6001836020036101000a03801982511681845116808217855250505050505090500191505060405160208183030381529060405280519060200120836040516020018082805190602001908083835b602083106136d757805182526020820191506020810190506020830392506136b4565b6001836020036101000a0380198251168184511680821785525050505050509050019150506040516020818303038152906040528051906020012014905092915050565b600060608060606000803373ffffffffffffffffffffffffffffffffffffffff1673ffffffffffffffffffffffffffffffffffffffff16815260200190815260200160002060090160009054906101000a900460ff166137e3576040517f08c379a00000000000000000000000000000000000000000000000000000000081526004018080602001828103825260138152602001807f5573657220646f6573206e6f742065786973740000000000000000000000000081525060200191505060405180910390fd5b6000803373ffffffffffffffffffffffffffffffffffffffff1673ffffffffffffffffffffffffffffffffffffffff16815260200190815260200160002060090160009054906101000a900460ff166138a4576040517f08c379a00000000000000000000000000000000000000000000000000000000081526004018080602001828103825260138152602001807f5573657220646f6573206e6f742065786973740000000000000000000000000081525060200191505060405180910390fd5b6000808773ffffffffffffffffffffffffffffffffffffffff1673ffffffffffffffffffffffffffffffffffffffff1681526020019081526020016000206000016000868152602001908152602001600020600001546000808873ffffffffffffffffffffffffffffffffffffffff1673ffffffffffffffffffffffffffffffffffffffff16815260200190815260200160002060000160008781526020019081526020016000206001016000808973ffffffffffffffffffffffffffffffffffffffff1673ffffffffffffffffffffffffffffffffffffffff16815260200190815260200160002060000160008881526020019081526020016000206002016000808a73ffffffffffffffffffffffffffffffffffffffff1673ffffffffffffffffffffffffffffffffffffffff1681526020019081526020016000206000016000898152602001908152602001600020600301828054600181600116156101000203166002900480601f016020809104026020016040519081016040528092919081815260200182805460018160011615610100020316600290048015613a8e5780601f10613a6357610100808354040283529160200191613a8e565b820191906000526020600020905b815481529060010190602001808311613a7157829003601f168201915b50505050509250818054600181600116156101000203166002900480601f016020809104026020016040519081016040528092919081815260200182805460018160011615610100020316600290048015613b2a5780601f10613aff57610100808354040283529160200191613b2a565b820191906000526020600020905b815481529060010190602001808311613b0d57829003601f168201915b50505050509150808054600181600116156101000203166002900480601f016020809104026020016040519081016040528092919081815260200182805460018160011615610100020316600290048015613bc65780601f10613b9b57610100808354040283529160200191613bc6565b820191906000526020600020905b815481529060010190602001808311613ba957829003601f168201915b50505050509050935093509350935092959194509250565b60606000803373ffffffffffffffffffffffffffffffffffffffff1673ffffffffffffffffffffffffffffffffffffffff16815260200190815260200160002060090160009054906101000a900460ff16613ca1576040517f08c379a00000000000000000000000000000000000000000000000000000000081526004018080602001828103825260138152602001807f5573657220646f6573206e6f742065786973740000000000000000000000000081525060200191505060405180910390fd5b60026000838152602001908152602001600020600701805480602002602001604051908101604052809291908181526020018280548015613d0157602002820191906000526020600020905b815481526020019060010190808311613ced575b50505050509050919050565b60008060008090505b600180549050811015613e9357613e3d60008060018481548110613d3657fe5b9060005260206000200160009054906101000a900473ffffffffffffffffffffffffffffffffffffffff1673ffffffffffffffffffffffffffffffffffffffff1673ffffffffffffffffffffffffffffffffffffffff1681526020019081526020016000206004018054600181600116156101000203166002900480601f016020809104026020016040519081016040528092919081815260200182805460018160011615610100020316600290048015613e325780601f10613e0757610100808354040283529160200191613e32565b820191906000526020600020905b815481529060010190602001808311613e1557829003601f168201915b50505050508561362c565b15613e865760018181548110613e4f57fe5b9060005260206000200160009054906101000a900473ffffffffffffffffffffffffffffffffffffffff1660019250925050613e9f565b8080600101915050613d16565b50336000819150915091505b915091565b6000803373ffffffffffffffffffffffffffffffffffffffff1673ffffffffffffffffffffffffffffffffffffffff16815260200190815260200160002060090160009054906101000a900460ff16613f65576040517f08c379a00000000000000000000000000000000000000000000000000000000081526004018080602001828103825260138152602001807f5573657220646f6573206e6f742065786973740000000000000000000000000081525060200191505060405180910390fd5b846002600089815260200190815260200160002060060160008881526020019081526020016000206000019080519060200190613fa39291906143af565b50836002600089815260200190815260200160002060060160008881526020019081526020016000206001019080519060200190613fe29291906143af565b508260026000898152602001908152602001600020600601600088815260200190815260200160002060020190805190602001906140219291906143af565b508160026000898152602001908152602001600020600601600088815260200190815260200160002060030160006101000a81548160ff0219169083600281111561406857fe5b021790555080600260008981526020019081526020016000206006016000888152602001908152602001600020600401819055506002600088815260200190815260200160002060070186908060018154018082558091505090600182039060005260206000200160009091929091909150555050505050505050565b6000803373ffffffffffffffffffffffffffffffffffffffff1673ffffffffffffffffffffffffffffffffffffffff16815260200190815260200160002060090160009054906101000a900460ff166141a6576040517f08c379a00000000000000000000000000000000000000000000000000000000081526004018080602001828103825260138152602001807f5573657220646f6573206e6f742065786973740000000000000000000000000081525060200191505060405180910390fd5b8060026000858152602001908152602001600020600401600084815260200190815260200160002060050181905550505050565b6000803373ffffffffffffffffffffffffffffffffffffffff1673ffffffffffffffffffffffffffffffffffffffff16815260200190815260200160002060090160009054906101000a900460ff1661429b576040517f08c379a00000000000000000000000000000000000000000000000000000000081526004018080602001828103825260138152602001807f5573657220646f6573206e6f742065786973740000000000000000000000000081525060200191505060405180910390fd5b826002600086815260200190815260200160002060010190805190602001906142c59291906143af565b50336002600086815260200190815260200160002060000160006101000a81548173ffffffffffffffffffffffffffffffffffffffff021916908373ffffffffffffffffffffffffffffffffffffffff160217905550816002600086815260200190815260200160002060020190805190602001906143459291906143af565b50806002600086815260200190815260200160002060030160006101000a81548160ff0219169083600181111561437857fe5b0217905550600384908060018154018082558091505090600182039060005260206000200160009091929091909150555050505050565b828054600181600116156101000203166002900490600052602060002090601f016020900481019282601f106143f057805160ff191683800117855561441e565b8280016001018555821561441e579182015b8281111561441d578251825591602001919060010190614402565b5b50905061442b919061442f565b5090565b61445191905b8082111561444d576000816000905550600101614435565b5090565b9056fea165627a7a72305820bcd8c55336e5793db2c6ab9b283530eb8654d7132eae9de55505b84e4d0a8b880029",
  "source": "pragma solidity >=0.4.22 <0.6.0;\n\ncontract MedicalRecord{\n    enum Gender{Male,Female,Other}\n    enum BloodGroup{Op,On,Ap,An,Bp,Bn,ABp,ABn}\n    enum HospitalType{government, privateorg}\n    \n    struct Record{\n        uint id;\n        string pdf;\n        string dateTime;\n        string docName;\n    }\n    \n    struct User{\n        mapping(uint => Record) records;\n        \n        uint[] appointments;\n        uint[] hospitalOfAppointment;\n        uint[] recordArr;\n        string phone;\n        string name;\n        string email;\n        Gender gender;\n        BloodGroup bg;\n        string dob;\n        bool exist;\n        bool died;\n    }\n    struct Docter{\n        string name;\n        string qualification;\n        string specialisation;\n        Gender gender;\n        uint experience;\n    }\n    struct Appointment{\n        string scheduledAt;\n        bool accepted;\n        bool seen;\n        bool completed;\n        string createdAt;\n        uint docter;\n        address patient;\n        uint fees;\n    }\n    struct Hospital {\n        address user;\n        string name;\n        string location;\n        HospitalType hospitalType;\n        \n        mapping(uint=> Appointment) appointments;\n        uint[] appointmentsArr;\n        \n        mapping(uint=>Docter) docters;\n        uint[] doctersArr;\n    }\n    \n    mapping(address => User) users;\n    address[] userArr;\n    \n    mapping(uint => Hospital)hospitals;\n    uint[] hospitalArr;\n    \n    event AcceptedAppointment(uint, string, string, uint);\n    \n    \n    function compareStrings (string memory a, string memory b) public pure returns (bool) {\n        return (keccak256(abi.encodePacked((a))) == keccak256(abi.encodePacked((b))) );\n    }\n    \n    modifier Authorized(){\n        require(users[msg.sender].exist, \"User does not exist\");\n        _;\n    }\n    \n    constructor() public {}\n    \n    function getDocters(uint hospital_id) public view Authorized returns(uint[] memory){\n        return(hospitals[hospital_id].doctersArr);\n    }\n    \n    function getDocter(uint hospital_id, uint docter_id) public view Authorized returns(\n        string memory, string memory, string memory,Gender,uint){\n            return ( \n                hospitals[hospital_id].docters[docter_id].name,\n                hospitals[hospital_id].docters[docter_id].qualification,\n                hospitals[hospital_id].docters[docter_id].specialisation,\n                hospitals[hospital_id].docters[docter_id].gender,\n                hospitals[hospital_id].docters[docter_id].experience\n            );\n        }\n    \n    function addDocter(\n        uint hospital_id,\n        uint docters_id,\n        string memory name, \n        string memory qualification, \n        string memory specialisation,\n        Gender gender,\n        uint experience\n    ) public Authorized{\n        hospitals[hospital_id].docters[docters_id].name=name;\n        hospitals[hospital_id].docters[docters_id].qualification=qualification;\n        hospitals[hospital_id].docters[docters_id].specialisation=specialisation;\n        hospitals[hospital_id].docters[docters_id].gender=gender;\n        hospitals[hospital_id].docters[docters_id].experience=experience;\n    \n        hospitals[hospital_id].doctersArr.push(docters_id);\n    }\n    \n    \n    function addHospital(uint id, string memory name, string memory location, HospitalType hospitalType) public Authorized {\n        hospitals[id].name=name;\n        hospitals[id].user=msg.sender;\n        hospitals[id].location=location;\n        hospitals[id].hospitalType = hospitalType;\n        hospitalArr.push(id);\n    }\n    \n    function getHospital() public view Authorized returns(uint, string memory){\n        for(uint i=0;i<hospitalArr.length;i++){\n            if(hospitals[hospitalArr[i]].user==msg.sender){\n                return(hospitalArr[i],hospitals[hospitalArr[i]].name);\n            }\n        }\n        return(0,'notfound');\n    }\n    function getHospitals() public view Authorized returns(uint[] memory){\n        return(hospitalArr);\n    }\n    function getHospitalById(uint hospital_id) public view \n    returns(string memory, string memory, HospitalType){\n        return(\n            hospitals[hospital_id].name,\n            hospitals[hospital_id].location,\n            hospitals[hospital_id].hospitalType\n        );\n    }\n    \n    \n    function getAppointments(uint hospital_id) public view Authorized returns(uint[] memory){\n        return(hospitals[hospital_id].appointmentsArr);\n    }  \n    \n    function getAppointment(uint hospital_id, uint appointment_id) \n    public view Authorized returns(bool, string memory, uint, address, uint) {\n        return(\n            hospitals[hospital_id].appointments[appointment_id].completed,\n            hospitals[hospital_id].appointments[appointment_id].createdAt,\n            hospitals[hospital_id].appointments[appointment_id].docter,\n            hospitals[hospital_id].appointments[appointment_id].patient,\n            hospitals[hospital_id].appointments[appointment_id].fees\n        );\n    }\n\n    function setAppointmentFees(uint hospital_id, uint appointment_id, uint fees) public Authorized {\n        hospitals[hospital_id].appointments[appointment_id].fees = fees;\n    } \n    function addAppointment(uint hospital_id, uint docter_id, uint appointment_id, address patient, string memory createdAt) public Authorized {\n        hospitals[hospital_id].appointments[appointment_id].createdAt = createdAt;\n        hospitals[hospital_id].appointments[appointment_id].docter = docter_id;\n        hospitals[hospital_id].appointments[appointment_id].patient = patient;\n        \n        hospitals[hospital_id].appointmentsArr.push(appointment_id);\n        users[patient].appointments.push(appointment_id);\n        users[patient].hospitalOfAppointment.push(hospital_id);\n    } \n    \n    function acceptAppointment(uint hospital_id, uint appointment_id, bool accepted, string memory scheduledAt) public {\n        hospitals[hospital_id].appointments[appointment_id].seen=true;\n        hospitals[hospital_id].appointments[appointment_id].accepted=accepted;\n        hospitals[hospital_id].appointments[appointment_id].scheduledAt=scheduledAt;\n        \n        emit AcceptedAppointment(\n            hospital_id,\n            hospitals[hospital_id].name,\n            scheduledAt,\n            appointment_id\n        );\n    }\n    \n    function getUserAppointments() public view returns(uint[] memory, uint[] memory){\n        return(\n            users[msg.sender].appointments,\n            users[msg.sender].hospitalOfAppointment\n        );\n    }\n    \n    function getUser()public view Authorized returns(string memory, string memory, string memory, Gender, BloodGroup, string memory){\n        return(\n            users[msg.sender].phone,\n            users[msg.sender].name,\n            users[msg.sender].email,\n            users[msg.sender].gender,\n            users[msg.sender].bg,\n            users[msg.sender].dob\n            );\n    }\n    \n    function getUserId(string memory phone) public view returns(address, bool){\n        for(uint i=0;i<userArr.length;i++){\n            if(compareStrings(users[userArr[i]].phone,phone)){\n                return(userArr[i], true);\n            }\n        }\n        return(msg.sender,false);\n    }\n    function addUser(string memory phone, string memory name, string memory email, Gender gender, BloodGroup bloodGroup, string memory dob) public{\n        users[msg.sender].phone = phone;\n        users[msg.sender].name = name;\n        users[msg.sender].email = email;\n        users[msg.sender].gender = gender;\n        users[msg.sender].bg = bloodGroup;\n        users[msg.sender].dob = dob;\n        users[msg.sender].exist = true;\n        userArr.push(msg.sender);\n    }\n    function addRecord(address a,uint id,string memory pdf, string memory dateTime,string memory docName) public{\n        users[a].records[id].pdf = pdf; \n        users[a].records[id].dateTime = dateTime; \n        users[a].records[id].docName = docName;\n        users[a].records[id].id = id;\n        users[a].recordArr.push(id);\n    }\n    function getAllRecords(address a) public Authorized view returns(uint[] memory){\n        return(users[a].recordArr);\n    }\n    function getRecord(address a,uint id) public Authorized view Authorized returns(uint,string memory, string memory, string memory){\n        return(users[a].records[id].id,\n            users[a].records[id].pdf,\n            users[a].records[id].dateTime,\n            users[a].records[id].docName);\n    }\n    \n}",
  "sourcePath": "/Users/shri99/WebProjects/healthereum_2.0/blockchain/contracts/MedicalRecord.sol",
  "compiler": {
    "name": "solc",
    "version": "0.5.8+commit.23d335f2.Emscripten.clang"
  },
  "schemaVersion": "3.0.11",
  "updatedAt": "2020-01-24T11:23:39.179Z",
  "devdoc": {
    "methods": {}
  },
  "userdoc": {
    "methods": {}
  }
}